:030000000200FA01
:0C00FA00787FE4F6D8FD75810F0200034A
:0A010600407924301912027800102D
:10000300E4F508F509AE08AF097C007D0A12008704
:100013008E0A8F0BAE08AF097C007D0A1200878C15
:100023000C8D0D750E00750F647F027E001200DCCF
:1000330075B0017406250BF5827401350AF583E466
:1000430093F5A07F027E001200DC75B002740625D2
:100053000DF5827401350CF583E493F5A0E50F15D6
:100063000F7002150ED3E50F9400E50E940050B9FE
:100073000509E50970020508643C45087087F50821
:04008300F50980817A
:1000DC00D3EF9400EE940040147D6E7C00ED1D7007
:0D00EC00011CED4C70F7EF1F70E61E80E365
:0100F90022E4
:10008700BC000BBE0029EF8DF084FFADF022E4CC5D
:10009700F875F008EF2FFFEE33FEEC33FCEE9DEC26
:1000A700984005FCEE9DFE0FD5F0E9E4CEFD22ED6C
:1000B700F8F5F0EE8420D21CFEADF075F008EF2FB6
:1000C700FFED33FD4007985006D5F0F222C398FDA7
:0500D7000FD5F0EA2244
:00000001FF
